:4000000000800020110000005D0600005D06000008B5044B1A6803F53F5302331A6000F03DFB00BFFA46004010B5054C237833B9044B13B10448AFF300800123237010BD79
:400040008081FF1F00000000D8410000084B10B51BB108490848AFF300800848036803B910BD074B002BFBD0BDE81040184700BF000000008481FF1FD8410000C880FF1F60
:400080000000000038B50D4C256800F0A3FC0C4B43F825002368013323602368032B0CDD074B59681A6802EB01216160D9689B6803EB0123A3600023236038BD9C81FF1FAF
:4000C000E881FF1F70B5184C207B00F0EDFC207C00F0E4FC606901F0EBFA0546A06901F0E7FA06460146284601F02EFA00F100400E4901F0E5FB0146E06901F025FAE061F7
:400100003146284601F01EFA084901F0D9FB0146206A01F019FA2062002000F0C5FC002000F0BCFC70BD00BF9C81FF1F0000404108B5034B0022DA611A6200F005FC08BD89
:400140009C81FF1F0000000080B582B04FF47A7000F06AFB00F030FC954802F073F900F055FB00F0DDFB00F0FFFC924800F024FD00F016FD904800F077FC00F069FC8F48BC
:4001800000F042FD00F034FD62B6002000F07AFC8B4CE06900F0BCFE06460F46206A00F0B7FECDE9000132463B46864802F04AF9D4F80480404601F07BFAE16901F0C2F9D2
:4001C00005466062A768384601F072FA216A01F0B9F90646A0620021284601F051FC10B9B8F1C80F09DD0021304601F049FC002840F0CB80C82F00F3C880714BDB6823B913
:400200006F4B186910B1012000E00120C0B200F03FFC012000F036FC694C666AA76A3946304601F08FF900F10040674901F094FA0546E0623946304601F086F900F1004039
:40024000614901F089FA0646206325F0004000F05FFE80468946284600F05AFE42464B4600F0D4FF01F042F90546606126F0004000F04EFE80468946304600F049FE424634
:400280004B4600F0C3FF01F031F90346A061012D14BF002001206063012B14BF00220122A263012D05D0B5F1FF3F01D1012500E00025434AD560012B05D0B3F1FF3F01D1ED
:4002C000012300E000233E4C236100F0C3FA94F8380000F033FBE06900F01AFE06460F46606801F0E5F9804600F012FE04460D462DA3D3E9002300F0ABFC02460B463046F9
:40030000394601F0E9F880B127A3D3E900232046294600F09FFC02460B463046394601F0BDF810B1264BC3F81C80254C206A00F0EFFD06460F46A06801F0BAF9804600F09B
:40034000E7FD04460D4618A3D3E9002300F080FC02460B463046394601F0BEF800283FF417AF11A3D3E900232046294600F072FC02460B463046394601F090F800283FF478
:4003800007AF0F4BC3F8208002E70D4B00245C619C61DC601C61204600F07AFB204600F071FBF5E6AFF300807B14AE47E17A843FE0410000C5000000850000003101000031
:4003C0009C81FF1FF44100000000C04070B51646002405E04D1C087800F012FB01342946B442F7DB304670BDFEE700BFF0B40022174611E050F82760F3B226F0FF0608E0DF
:4004000001EB420511F812406D78A5550132013BDBB2002BF4D101371E2FEBD9F0BC7047064B1B78DBB203F00701054A11701B09013213704422034B1A707047CF01004993
:400440006E5800407658004008B50A46002101F080FB08BD38B50122254B1A801823254A1370192502321580023213700222224B1A7008224FF040231A70032103F5007304
:4004800019701E4B1B78DBB21D490B701D4B1A8041F25122023B1A8000240CE01A4B1B7803F0010343EA440404F003044FF4F07000F0BAFB013D0DB1032CEFD115B9032037
:4004C000FFF792FF114B4FF480721A8007221A7000220F490A704820023108701A700222033B1A700B4A137843F00303137038BD80400040824000400043004008010049B2
:40050000A146004022420040254200400440004006400040A243004008B501F00FFB08BD38B572B6394A137843F00403137000240CE0374D630019194A0011462A44084637
:4005400091882858FFF780FF0134E4B2082CF0D900240CE02E48A20011194B000344B3F84020D96B986BFFF7D7FF0134E4B2012CF0D928494FF09040FFF738FF264A274B53
:400580001A60274A03F560731A60264A137843F0020313701032137843F002031370224C237843F040032370A2F58632513A137843F0100313700A221C491D48FFF7ACFFF6
:4005C00008221C491C48FFF7A7FF08221B491C48FFF7A2FF0A221B491B48FFF79DFF1B4A137843F008031370194D61232B70FFF731FF81232B700122164B1A70FFF710FFB0
:400600000E2221461448FFF787FF38BDE8460040044200007C00004884840084D8080140C4C4000403500140A043004060060048C05100406C060048F251004074060048F0
:40064000125100407C06004820510040224300400048004004000840B043004008B501F041FA03680C2B00D1FEE7FEE708B5094B1A681044084BC31AB3F5806F02DC054BAE
:40068000186005E001F02EFA0C2303604FF0FF32104608BDCC80FF1F0082FF1F08B5104E104D16E029686B68AC68002204E051F8040B43F8040B0432A242F8D1E8680022BA
:4006C00003E0002143F8041B04328242F9D11035013E002EE6D101F00BFAFFF735FDFEE7010000004044000008B5104A104B1A60104A136843F40073136000230AE0032BCE
:4007000003D80D4A52F8231000E00C490C4A42F8231001332F2BF2D90A4B1A780A4B1A70074A0A4B1A60FFF7FBFE08BD0004FA050CED00E014ED00E0000000005D060000FF
:400740000080FF1FBC760040C080FF1F08ED00E0024A137843F08003137070477C640040014B1870704700BF0D640040014B1870704700BF4D640040014B1870704700BFCF
:400780002D640040014B1870704700BF8D640040014B1878704700BF6D640040014B1878704700BF5D64004008B501E0FFF7F6FFFFF7EEFF10F0100FF8D108BD10B5114AFE
:4007C000137803F0C00343F01B0313700E4C237843F0010323700620FFF7C2FF0620FFF7C5FF0520FFF7C8FF0020FFF7CBFF00F023FA237843F01003237000F021FAFFF724
:40080000D3FF10BD7C6400409D64004008B5054B1B7823B9FFF7D2FF0122024B1A70FFF797FF08BDD881FF1F10B5044605E0084B186800F0F9F9A4F50044B4F5004FF6D867
:40084000034B586800FB04F000F0EEF910BD00BFD080FF1F014B1870704700BF79650040024A137843F080031370704778640040014B1870704700BF09650040014B187093
:40088000704700BF49650040014B1870704700BF29650040014B1870704700BF89640040014B1878704700BF69640040014B1878704700BF5965004008B501E0FFF7F6FF0D
:4008C000FFF7EEFF10F0100FF8D108BD08B5124A137803F0C00343F01B03137002F22112137843F0010313700620FFF7C1FF0620FFF7C4FF0520FFF7C7FF0020FFF7CAFF53
:4009000000F09AF9054A137843F01003137000F097F9FFF7D1FF08BD786400409964004008B5054B1B7823B9FFF7D0FF0122024B1A70FFF795FF08BDD981FF1F014B187057
:40094000704700BF7A640040024B1878C0F38000704700BF824500407222084B1A702022033B1A700622A3F25D131A70472210331A7000224F331A70704700BF8B6500401A
:4009800010B500F059F904460A4A137843F020031370033A137843F010031370FE3A137843F01003137000F037F8204600F048F910BD00BF9B65004008B5054B1B7823B913
:4009C000FFF7CAFF0122024B1A70FFF7D9FF08BDDA81FF1F084B1B78DBB213F0200F06D0064A1078C0B213F01E0F02D17047002070470020704700BF68650040486500404C
:400A0000034B1B7813F0040FFAD1024B187070476A6400404A640040054A137843F0020313701032137843F002031370704700BFA2430040014B1B681864704708ED00E0DD
:400A40004001C0B2014B1870704700BF00E400E00122014B1A60704700E100E00122014B1A60704780E100E010B50446FFF7F6FF2046FFF7DFFF0720FFF7E2FFFFF7E8FF64
:400A800010BD00BF014B1870704700BF79640040014B1870704700BF7B640040014B1870704700BF78650040014B1870704700BF7D640040084A137843F00103137010322F
:400AC000137843F00103137002F64D32137843F001031370704700BFA3430040014B1870704700BF034F0040014B1880704700BF044F0040014B1880704700BF064F0040A1
:400B000008B5164A137803F0010313700232137803F0FC031370124B1A7802F0CF021A701A7842F030021A701A7802F0F0021A701A7842F00F021A700A4A137843F001032E
:400B4000137044F6FF20FFF7CFFF44F6FF20FFF7D1FF0020FFF7C2FF08BD00BF004F00400B4F0040014F004008B5054B1B7823B9FFF7C6FF0122024B1A70FFF79BFF08BD1C
:400B8000DC81FF1F014B1B685864704708ED00E04001C0B2014B1870704700BF01E400E00222014B1A60704700E100E00222014B1A60704780E100E010B50446FFF7F6FFA3
:400BC0002046FFF7DFFF0720FFF7E2FFFFF7E8FF10BD00BF014B1B689865704708ED00E04001C0B2014B1870704700BF06E400E04022014B1A60704700E100E04022014BE7
:400C00001A60704780E100E010B50446FFF7F6FF2046FFF7DFFF0720FFF7E2FFFFF7E8FF10BD00BF000000000230800803D000BF01380046FCD17047EFF3108072B6704707
:400C400080F31088704700BF81F0004102E000BF83F0004330B54FEA41044FEA430594EA050F08BF90EA020F1FBF54EA000C55EA020C7FEA645C7FEA655C00F0E2804FEACF
:400C80005454D4EB5555B8BF6D420CDD2C4480EA020281EA030382EA000083EA010180EA020281EA0303362D88BF30BD11F0004F4FEA01314FF4801C4CEA113102D040420E
:400CC00061EB410113F0004F4FEA03334CEA133302D0524263EB430394EA050F00F0A780A4F10104D5F1200E0DDB02FA0EFC22FA05F2801841F1000103FA0EF2801843FA5A
:400D000005F359410EE0A5F120050EF1200E012A03FA0EFC28BF4CF0020C43FA05F3C01851EBE37101F0004507D54FF0000EDCF1000C7EEB00006EEB0101B1F5801F1BD31C
:400D4000B1F5001F0CD349085FEA30004FEA3C0C04F101044FEA445212F5800F80F09A80BCF1004F08BF5FEA500C50F1000041EB045141EA050130BD5FEA4C0C404141EB05
:400D8000010111F4801FA4F10104E9D191F0000F04BF01460020B1FA81F308BF2033A3F10B03B3F120020CDA0C3208DD02F1140CC2F10C0201FA0CF021FA02F10CE002F11D
:400DC0001402D8BFC2F1200C01FA02F120FA0CFCDCBF41EA0C019040E41AA2BF01EB0451294330BD6FEA04041F3C1CDA0C340EDC04F11404C4F1200220FA04F001FA02F3FD
:400E000040EA030021FA04F345EA030130BDC4F10C04C4F1200220FA02F001FA04F340EA0300294630BD21FA04F0294630BD94F0000F83F4801306BF81F480110134013DEA
:400E40004EE77FEA645C18BF7FEA655C29D094EA050F08BF90EA020F05D054EA000C04BF1946104630BD91EA030F1EBF0021002030BD5FEA545C05D14000494128BF41F069
:400E8000004130BD14F580043CBF01F5801130BD01F0004545F0FE4141F470014FF0000030BD7FEA645C1ABF194610467FEA655C1CBF0B46024650EA013406BF52EA03358F
:400EC00091EA030F41F4002130BD00BF90F0000F04BF0021704730B54FF4806404F132044FF000054FF0000150E700BF90F0000F04BF0021704730B54FF4806404F1320427
:400F000010F0004548BF40424FF000013EE700BF42004FEAE2014FEA31014FEA02701FBF12F07F4393F07F4F81F06051704792F0000F14BF93F07F4F704730B54FF4607417
:400F400001F0004521F0004120E700BF50EA010208BF704730B54FF000050AE050EA010208BF704730B511F0004502D5404261EB41014FF4806404F132045FEA915C3FF4CD
:400F8000DCAE4FF003025FEADC0C18BF03325FEADC0C18BF033202EBDC02C2F1200300FA03FC20FA02F001FA03FE40EA0E0021FA02F11444C1E600BF70B54FF0FF0C4CF494
:400FC000E06C1CEA11541DBF1CEA135594EA0C0F95EA0C0F00F0DEF82C4481EA030621EA4C5123EA4C5350EA013518BF52EA033541F4801143F4801338D0A0FB02CE4FF0C2
:401000000005E1FB02E506F00042E0FB03E54FF00006E1FB03569CF0000F18BF4EF0010EA4F1FF04B6F5007F64F5407404D25FEA4E0E6D4146EB060642EAC62141EA55519B
:401040004FEAC52040EA5E504FEACE2EB4F1FD0C88BFBCF5E06F1ED8BEF1004F08BF5FEA500E50F1000041EB045170BD06F0004646EA010140EA020081EA0301B4EB5C04F7
:40108000C2BFD4EB0C0541EA045170BD41F480114FF0000E013C00F3AB8014F1360FDEBF002001F0004170BDC4F10004203C35DA0C341BDC04F11404C4F1200500FA05F32A
:4010C00020FA04F001FA05F240EA020001F0004221F0004110EBD37021FA04F642EB06015EEA430E08BF20EAD37070BDC4F10C04C4F1200500FA04F320FA05F001FA04F24E
:4011000040EA020001F0004110EBD37041F100015EEA430E08BF20EAD37070BDC4F1200500FA05F24EEA020E20FA04F301FA05F243EA020321FA04F001F0004121FA04F26C
:4011400020EA020000EBD3705EEA430E08BF20EAD37070BD94F0000F0FD101F00046400041EB010111F4801F08BF013CF7D041EA060195F0000F18BF704703F000465200F5
:4011800043EB030313F4801F08BF013DF7D043EA0603704794EA0C0F0CEA135518BF95EA0C0F0CD050EA410618BF52EA4306D1D181EA030101F000414FF0000070BD50EA92
:4011C000410606BF1046194652EA430619D094EA0C0F02D150EA013613D195EA0C0F05D152EA03361CBF104619460AD181EA030101F0004141F0FE4141F470014FF00000B9
:4012000070BD41F0FE4141F4780170BD70B54FF0FF0C4CF4E06C1CEA11541DBF1CEA135594EA0C0F95EA0C0F00F0A7F8A4EB050481EA030E52EA03354FEA013100F08880D9
:401240004FEA03334FF0805545EA131343EA12634FEA022245EA111545EA10654FEA00260EF000419D4208BF964244F1FD0404F5407402D25B084FEA3202B61A65EB0305D3
:401280005B084FEA32024FF480104FF4002CB6EB020E75EB030E22BFB61A754640EA0C005B084FEA3202B6EB020E75EB030E22BFB61A754640EA5C005B084FEA3202B6EB03
:4012C000020E75EB030E22BFB61A754640EA9C005B084FEA3202B6EB020E75EB030E22BFB61A754640EADC0055EA060E18D04FEA051545EA16754FEA06164FEAC30343EA0E
:4013000052734FEAC2025FEA1C1CC0D111F4801F0BD141EA00014FF000004FF0004CB6E711F4801F04BF01430020B4F1FD0C88BFBCF5E06F3FF6AFAEB5EB030C04BFB6EB61
:40134000020C5FEA500C50F1000041EB045170BD0EF0004E4EEA113114EB5C04C2BFD4EB0C0541EA045170BD41F480114FF0000E013C90E645EA060E8DE60CEA135594EA50
:401380000C0F08BF95EA0C0F3FF43BAF94EA0C0F0AD150EA01347FF434AF95EA0C0F7FF425AF104619462CE795EA0C0F06D152EA03353FF4FDAE1046194622E750EA4106B0
:4013C00018BF52EA43067FF4C5AE50EA41047FF40DAF52EA43057FF4EBAE12E74FF0FF3C06E000BF4FF0010C02E000BF4FF0010C4DF804CD4FEA410C7FEA6C5C4FEA430CC7
:4014000018BF7FEA6C5C1BD001B050EA410C0CBF52EA430C91EA030F02BF90EA020F0020704710F1000F91EA030F58BF994208BF90422CBFD8176FEAE37040F001007047E5
:401440004FEA410C7FEA6C5C02D150EA013C07D14FEA430C7FEA6C5CD6D152EA033CD3D05DF8040B704700BF8446104662468C461946634600E000BF01B5FFF7B7FF002870
:4014800048BF10F1000F01BD4DF808EDFFF7F4FF0CBF012000205DF808FB00BF4DF808EDFFF7EAFF34BF012000205DF808FB00BF4DF808EDFFF7E0FF94BF012000205DF8B5
:4014C00008FB00BF4DF808EDFFF7CEFF94BF012000205DF808FB00BF4DF808EDFFF7C4FF34BF012000205DF808FB00BF4FEA410212F5001215D211D56FF47873B3EB625242
:4015000012D94FEAC12343F0004343EA505311F0004F23FA02F018BF404270474FF00000704750EA013005D111F0004008BF6FF0004070474FF00000704700BF80F00040F4
:4015400002E000BF81F0004142001FBF5FEA410392EA030F7FEA226C7FEA236C6AD04FEA1262D2EB1363C1BFD218414048404140B8BF5B42192B88BF704710F0004F40F407
:40158000000020F07F4018BF404211F0004F41F4000121F07F4118BF494292EA030F3FD0A2F1010241FA03FC10EB0C00C3F1200301FA03F100F0004302D5494260EB4000F0
:4015C000B0F5000F13D3B0F1807F06D340084FEA310102F10102FE2A51D2B1F1004F40EBC25008BF20F0010040EA03007047490040EB000010F4000FA2F10102EDD1B0FA75
:4016000080FCACF1080CB2EB0C0200FA0CF0AABF00EBC25052421843BCBFD0401843704792F0000F81F4000106BF80F400000132013BB5E74FEA41037FEA226C18BF7FEAEB
:40164000236C21D092EA030F04D092F0000F08BF0846704790EA010F1CBF0020704712F07F4F04D1400028BF40F00040704712F100723CBF00F50000704700F0004343F07A
:40168000FE4040F4000070477FEA226216BF08467FEA23630146420206BF5FEA412390EA010F40F4800070474FF0000304E000BF10F0004348BF40425FEA000C08BF70478C
:4016C00043F0964301464FF000001CE050EA010208BF70474FF000030AE000BF50EA010208BF704711F0004302D5404261EB41015FEA010C02BF84460146002043F0B6435C
:4017000008BFA3F18053A3F50003BCFA8CF2083AA3EBC25310DB01FA02FC634400FA02FCC2F12002BCF1004F20FA02F243EB020008BF20F00100704702F1200201FA02FC98
:40174000C2F1200250EA4C0021FA02F243EB020008BF20EADC7070474FF0FF0C1CEAD0521EBF1CEAD15392EA0C0F93EA0C0F6FD01A4480EA010C400218BF5FEA41211ED08D
:401780004FF0006343EA501043EA5111A0FB01310CF00040B1F5000F3EBF490041EAD3715B0040EA010062F17F02FD2A1DD8B3F1004F40EBC25008BF20F00100704790F043
:4017C000000F0CF0004C08BF49024CEA502040EA51207F3AC2BFD2F1FF0340EAC250704740F400004FF00003013A5DDC12F1190FDCBF00F000407047C2F10002410021FAA5
:4018000002F1C2F1200200FA02FC5FEA310040F1000053EA4C0308BF20EADC70704792F0000F00F0004C02BF400010F4000F013AF9D040EA0C0093F0000F01F0004C02BF32
:40184000490011F4000F013BF9D041EA0C018FE70CEAD15392EA0C0F18BF93EA0C0F0AD030F0004C18BF31F0004CD8D180EA010000F00040704790F0000F17BF90F0004F7F
:40188000084691F0000F91F0004F14D092EA0C0F01D142020FD193EA0C0F03D14B0218BF084608D180EA010000F0004040F0FE4040F40000704740F0FE4040F440007047C5
:4018C0004FF0FF0C1CEAD0521EBF1CEAD15392EA0C0F93EA0C0F69D0A2EB030280EA010C49024FEA402037D04FF0805343EA111143EA10130CF000408B4238BF5B0042F1D4
:401900007D024FF4000C8B4224BF5B1A40EA0C00B3EB510F24BFA3EB510340EA5C00B3EB910F24BFA3EB910340EA9C00B3EBD10F24BFA3EBD10340EADC001B0118BF5FEA27
:401940001C1CE0D1FD2A3FF650AF8B4240EBC25008BF20F0010070470CF0004C4CEA50207F32C2BFD2F1FF0340EAC250704740F400004FF00003013A37E792F0000F00F062
:40198000004C02BF400010F4000F013AF9D040EA0C0093F0000F01F0004C02BF490011F4000F013BF9D041EA0C0195E70CEAD15392EA0C0F08D142027FF47DAF93EA0C0FE2
:4019C0007FF470AF084676E793EA0C0F04D14B023FF44CAF08466EE730F0004C18BF31F0004CCAD130F000427FF45CAF31F000437FF43CAF5FE700BF4FF0FF3C06E000BF0E
:401A00004FF0010C02E000BF4FF0010C4DF804CD4FEA40024FEA41037FEA226C18BF7FEA236C11D001B052EA530C18BF90EA010F58BFB2EB030088BFC81738BF6FEAE1708D
:401A400018BF40F0010070477FEA226C02D15FEA402C05D17FEA236CE4D15FEA412CE1D05DF8040B704700BF844608466146FFE70FB5FFF7C9FF002848BF10F1000F0FBD32
:401A80004DF808EDFFF7F4FF0CBF012000205DF808FB00BF4DF808EDFFF7EAFF34BF012000205DF808FB00BF4DF808EDFFF7E0FF94BF012000205DF808FB00BF4DF808ED88
:401AC000FFF7D2FF94BF012000205DF808FB00BF4DF808EDFFF7C8FF34BF012000205DF808FB00BF014B1868704700BF4081FF1F0E4B70B51E460E4C0025E41AA410A54217
:401B000004D056F8253098470135F8E702F086FC084B094C1E46E41AA4100025A54204D056F8253098470135F8E770BD2844000028440000284400003044000010B5431E86
:401B40000A44914204D011F8014B03F8014FF8E710BD03460244934202D003F8011BFAE770472DE9F04788B0149F002B1E461299B8BF03F1004327F02007B6BF1E460023E5
:401B80002D23462F1446109DDDF84CA00B7003D0452F03D1013501E0032300E0022307AA049206AA03928DE828042246334600F0F7FC472F804602D1119BDB0728D5462FC0
:401BC00008EB050911D198F80030302B0AD10022002320463146FFF757FC18B9C5F10105CAF80050DAF8003099440022002320463146FFF749FC08B9302202E0CDF81C9060
:401C000006E0079B994503D9591C07911A70F8E74046079B159AC8EB0303136008B0BDE8F087034673B50029B8BF494203F8022BB4BF2D222B22092942701ADD0DF1070260
:401C400016460A2591FBF5F405FB1411092C01F1300102F8011D2146F4DC3031541E02F8011CB4421A460AD214F8012B03F8012BF7E71A463024214402F8024B5970101AEC
:401C800002B070BD2DE9F04F91B00C46DDF8688016461F46054601F0E5FA03681846099300F0E8FB00230E93D8F800300A90073323F0070303F1080294F81890D4F800B029
:401CC000C8F80020D3E90023C4E91223D4F84CA0D4F848802AF000430B934FF0FF32A74B40460B9902F03AFAA0B94FF0FF32A34B40460B99FFF7DCFB60B9002200234046B8
:401D00005146FFF7CBFB10B12D2384F843309C4B9C4A0AE0424653464046514602F01EFA002800F09281984B984AB9F1470F8CBF90469846032323612BF0040323604FF0D4
:401D4000000A3DE0B9F1670F00F08A81B9F1470F00F0868123600193636800210DF13302059002920093424653460691CDF81090CDF80CE02846FFF7F4FE09F0DF03472BC7
:401D8000804600F08481B9F1650F0D9900F28D8101394A4604F150000D91FFF742FF0E9A82468318012A236100F37C812268D10700F178819DF8333013B12D2384F84330CF
:401DC000009733460FAA2146284600F09FF9013002D14FF0FF3096E123685A0501D4236965E0B9F1650F40F2D580D4E9120100220023FFF749FB78B30123654A314628466D
:401E0000B8470130E5D00E9B0D9A9A420BDB2368D80708D423689B0740F111814FF0000804F1190906E10A9B099A31462846B8470130CED04FF0000804F11A090E9B013BF1
:401E40009845E7DA01234A4631462846B8470130BFD008F10108F1E70D9B002B29DC01234B4A31462846B8470130B2D00D9B23B90E9B13B92368D907CCD50A9B099A3146A6
:401E80002846B8470130A4D04FF0000904F11A0A0D9B5B42994509DA0123524631462846B847013095D009F10109F1E70E9B4246A7E00E9AA36D9A42A8BF1A46002A914683
:401EC00006DC4FF0000A29EAE97904F11A0B11E01346314642462846B8470130F1D178E701235A4631462846B84701303FF471AF0AF1010AA36DC9EB03029245F0DB08EB90
:401F000003090D9A0E9B9A420FDB2368DA070CD40E9B0D9A9844C9EB08089B1A9845A8BF9846B8F1000F08DC0FE00A9B099A31462846B8470130EBD14BE743464A46314606
:401F40002846B84701303FF444AF4FF0000928EAE87804F11A0A09E00123524631462846B84701303FF435AF09F101090D9A0E9B9B1AC8EB03039945EEDB4BE7FFFFEF7FF2
:401F8000584200005C4200006042000064420000684200000E9A012A01DCDB0738D50123424631462846B84701303FF412AF0A9B099A31462846B84701303FF40AAFD4E99D
:401FC000120100220023FFF75FFA20B14FF0000804F11A090EE00E9B08F10102013B19E001234A4631462846B84701303FF4F1AE08F101080E9B013B9845F1DB534604F189
:40200000500231462846B84701307FF403AFE0E64246012331462846B8470130EED1D8E601234A4631462846B84701303FF4D1AE08F10108E3680F9A9B1A9845F0DBE068FA
:402040000F9B9842B8BF18465DE062680EA8531C0DF1340E4BF480637FF474AE062201E012B90122626075E6002106910DF133018DE80C00236005904246CDF81090CDF89B
:402080000CE0029153462846FFF76BFD80460D9BD81C02DB626893421DDDA9F102095FFA89F970E60133236184E6B9F1660F14D10029636807DD216113B92268D2071DD5ED
:4020C00001330B4419E013B92268D00701D5023313E0012311E04FF067090D9B0E9A934205DB22682361D10708D5013305E0002BD4BFC3F102030123134423610D9B4FF037
:40210000000AA36556E611B0BDE8F08F2DE9F04791461F460A698B6806469342B8BF1346C9F8003091F843200C46DDF8208012B10133C9F800302368990642BFD9F80030D4
:402140000233C9F80030256815F0060510D104F1190A07E00123524639463046C04701301AD00135E368D9F800209B1A9D42F1DB94F843302268003318BF012392060FD5E4
:40218000E118302081F843005A1C94F845102244023382F8431003E04FF0FF30BDE8F08704F1430239463046C0470130F4D02268D9F80050E36802F00602042A08BF5D1B66
:4021C0002269A3680CBF25EAE57500259342C4BF9B1AED184FF000091A344D4509D00123224639463046C0470130D5D009F10109F3E70020BDE8F0872DE9F04317460A7E37
:4022000085B06E2A984606460C460C9B01F1430E00F0AE8011D8632A22D009D8002A00F0BB80582A40F0CA8081F84520834955E0642A1ED0692A1CD0C0E0732A00F0B0807C
:4022400009D86F2A2ED0702A40F0B8800A6842F020020A603EE0752A24D0782A3AD0ADE01A6801F14205111D1960136884F84230A8E021681A6811F0800F02D0111D196063
:4022800008E011F0400F02F10401196002D0B2F9003000E01368002B3CDA2D225B4284F8432037E021681A6811F0800F02D0111D196007E011F0400F02F10401196001D0BD
:4022C000138800E01368227E5C496F2A14BF0A2208221BE078225A4984F845202268186812F0800F00F104051D6003D1550601D5038800E00368D00744BF42F0200222602B
:402300001BB9226822F0200222601022002084F8430001E049490A226568002DA56008DB206820F0040020602BB9002D7DD175460CE0002B79D07546B3FBF2F002FB1033D6
:40234000CB5C05F8013D03460028F5D1082A0BD12368DA0708D5236962689A42DEBF302305F8013C05F1FF35C5EB0E0323612EE008681A6810F0800F496903D0101D1860E9
:40238000136808E010F0400F02F104001860136801D0198000E0196000232361754616E01A68111D1960156800216268284600F065FF08B1401B6060636804E004F1420554
:4023C00084F8422001232361002384F84330CDF800803B4603AA21463046FFF797FE013002D14FF0FF3026E023692A4639463046C0470130F5D023689B0710D5002504F1D8
:40240000190907E001234A4639463046C0470130E7D00135E368039A9B1A9D42F2DBE068039B9842B8BF184605E00B7804F1420584F842308AE705B0BDE8F0836A4200006B
:402440007B4200000FB40A4B13B51C6824B1A36913B9204600F07CFE05AB049AA1682046019301F0CFFA02B0BDE8104004B070474081FF1F034613F8012B002AFBD1181A1A
:40248000013870472DE9F74F03690C6980469C427FDC013C01F114074FEA840E00F1140606EB0E0357F82450019356F824300135B3FBF5F507EB0E09C5B34FF0000A3846BF
:4024C000B446D34650F8043B9AB205FB02A21B0C4FEA124A05FB03A392B2C2EB0B0BBCF800204FEA134A5A441FFA83FBDCF800308145CBEB134303EB224392B242EA03426C
:402500004FEA234B4CF8042BDCD256F80E306BB9019B043B9E421A4602D3C8F8104005E01268043B002AF8D1013CF3E7404601F0C0F800282BDB304601354FF0000E57F8D6
:40254000042B036891B2C1EB0E0E120C99B27144C2EB134303EB214389B24FEA234EB94541EA034340F8043BE9D256F8242006EB840362B9043B9E421A4602D3C8F8104034
:4025800005E01268043B002AF8D1013CF3E7284600E0002003B0BDE8F08F0000000000002DE9F04F456A95B08246219CCDE9022345B9102000F05AFECAF82400456085609F
:4025C0000560C560DAF82430196859B15A68012393404A608B60504600F093FEDAF8243000221A60039BA04A002BBDBF01232360039B0023BCBF23F000430393DDF80C801A
:40260000A8BF236028F000431B0D1B0593421DD142F20F73209A1360029B43B9934A944BC8F31300002814BF1846104600E09048229B002B00F04685C37813B100F108033F
:4026400000E0C31C229A136000F03CBDDDE902450022002320462946FEF716FF074658B1209A01231360229B002B00F01E8581481860013800F026BD12AB019313AB009341
:4026800022462B46504601F08FF8C8F30A56049056B1C5F3130343F07F51204641F44011A6F2FF3611971DE0139B129E1E4406F23243202B0ADD029A06F21240C3F1400312
:4026C00022FA00F008FA03F3184304E0C3F12000029B03FA00F0FEF7F9FB0123A1F1F871013E11930022644BFEF7B2FA58A3D3E90023FEF761FC58A3D3E90023FEF7AAFA3D
:40270000044630460D46FEF7F1FB55A3D3E90023FEF752FC02460B4620462946FEF79AFA04460D46FEF7E2FE00228346002320462946FEF7B3FE58B15846FEF7D7FB0246E3
:402740000B4620462946FEF79FFE08B90BF1FF3BBBF1160F0DD8DDE90223484901EBCB01D1E90001FEF7B8FE30B10BF1FF3B002300E00123109300E01090129B9E1B731E02
:40278000079343BFC3F10008002307934FF00008BBF1000F06DB079BCDF82CB05B440793002705E00023CBEB0808CBF100070B931E9B092B28D8052BC4BF043B1E931E9B06
:4027C000C8BF0025A3F10203D8BF0125032B20D8DFE803F0060E0204012302E0012308E000230A931F9B002B1DDD9946059321E000230A931F9B0BEB030909F10103012B0E
:402800000593B8BF012315E0012500231E930A9501E001230A934FF0FF390022CDF8149012231F9206E04FF001094B46CDF81490CDF87C90DAF8244000226260042101F122
:4028400014029A421CD86268490001326260F6E761436F63A787D23FB3C8608B288AC63FFB799F501344D33F0000F07F8C42000095420000694200000000F83F08430000AE
:402880006168504600F008FDDAF8243020601B680693059B0E2B00F25B81002D00F05881DDE90234BBF1000FCDE90E3430DD9F4A0BF00F034FEA2B1502EBC303E80618CBB6
:4028C000CDE908340CD5DDE90E01994B05F00F05D3E90823FEF79AFC0324CDE9020100E00224934E6DB1E90708D5DDE90801D6E90023FEF761FBCDE9080101346D1008366E
:40290000F0E7DDE90823DDE90201FEF77FFC20E0CBF1000505B3DDE90E01844B05F00F0203EBC203D3E90023FEF746FBCDE902017F4E2D110023022455B1EA0705D5D6E90E
:402940000023FEF739FB013401236D100836F3E71BB1CDE9020100E00224109BE3B1DDE902560022734B28463146FEF797FD98B1059B8BB1B9F1000F40F3E6800BF1FF3342
:402980000893314600226C4B2846FEF715FB0134CDE902014E4602E0059ECDF820B02046FEF7A4FADDE90223FEF706FB634B0022FEF750F9A1F1507304460C931D46D6B905
:4029C000DDE9020100225E4BFEF742F922460C9BCDE90201FEF780FD002840F03F820C99224601F10043DDE90201FEF757FD002840F02B82A8E00A9A4C4B711E002A49D0D2
:402A000003EBC103D3E9002300204E49FEF7FEFB22462B46FEF71CF9CDE90C01069CDDE90201FEF763FD0546FEF760FA02460B46DDE90201FEF70CF9DDE90C23303504F8AE
:402A4000015BCDE90201FEF729FD002840F01D83DDE9022300203749FEF7FAF8DDE90C23FEF71CFD002840F0D180069BE31AB3426ADADDE90C0100222F4BFEF79DFA00221C
:402A8000CDE90C01DDE902012B4BFEF795FACDE90201C4E703EBC1012246D1E900012B46FEF78AFA069BCDE90C011D469C19DDE90201FEF71BFD0646FEF718FA02460B4631
:402AC000DDE90201FEF7C4F8303605F8016BAC42CDE902014FF0000222D11A4BDDE90C01FEF7B8F802460B46DDE90201FEF7F4FC002840F08B80DDE90C2300201149FEF7C7
:402B0000A7F802460B46DDE90201FEF7C7FCD8B114F8013C621E302B40F0B7821446F7E7054BFEF749FACDE90201C0E708430000E04300000000F03F0000244000001C4049
:402B4000000014400000E03FDDE90E34CDE90234139B002B7CDBBBF10E0F79DCAB4B03EBCB03D3E900671F9B002B14DA059B002B11DC40F06C810022A54B30463946FEF727
:402B80001BFADDE90223FEF79DFC059D2E46002840F05F8165E1069CDDE9028932463B4640464946FEF732FBFEF7A0FC0546FEF79DF932463B46FEF7FFF90B46024649465B
:402BC0004046FEF745F805F1300E069B04F801EBC3EB040E059B73452DD102460B46FEF739F88046894602460B4630463946FEF755FC78B942464B4630463946FEF744FCAE
:402C0000002800F04482EB0704D440E2DDF820B000E01C4614F8012C631E392A07D1069A9A42F6D1069930220BF1010B0A701A7801321A702BE20022764BFEF7BDF900222C
:402C4000002380468946FEF71FFC0028A6D01EE20A9A002A2BD01E9A012A0ADC119A12B103F2334302E0129BC3F136033D46444613E0059B5D1EAF42BFBF0B9BEA1B9B181F
:402C80000B93059BB6BF2F467D1B0025002BA7BF4446059BC3EB08040023079A01211A4450469844079200F0CBFB064602E03D4644460A9E5CB1079B002B08DDA342A8BFC7
:402CC0002346079AC3EB0808E41AD31A0793002F1DDD0A9BABB18DB131462A46504600F049FC049A01460646504600F0B2FB04990890504600F005FB089B04937A1B06D0A9
:402D000000E03A460499504600F034FC04900121504600F095FB0B9B05465BB31A460146504600F027FC1E9B0546012B18DC029B83B9039BC3F3130373B9039B23F000473A
:402D40003F0D3F054FB1079B08F1010801330793012702E0002700E0029F0B9B73B100E000272B6905EB8303186900F01CFBC0F1200004E01E9B012BD9DD0B9F0120079B7F
:402D8000184410F01F0008D0C0F12003042B02DDC0F11C0002E006D018461C30079B8044034404440793B8F1000F05DD42460499504600F02DFC0490079B002B05DD294600
:402DC0001A46504600F024FC0546109B23B32946049800F06EFC00281EDA00230A220499504600F0A5FA0A9B0BF1FF3B0490002B00F05F81314600230A22504600F098FA23
:402E0000B9F1000F06463FDC3BE000BF084300000000144000002440059B002B2BDC1E9B022B28DDDDF81490B9F1000F11D129464B460522504600F07BFA01460546049874
:402E400000F037FC00280CDC03E0354600E000252E461F9B069C6FEA030B09E03546DDF820B0069B069A5C1C312313700BF1010B05960026F7E00A9BDDF8149023B9069CB0
:402E8000B2E01E9B022BCFDC002C05DD31462246504600F0BDFB06469FB17168504600F0FBF90446326906F10C01023292000C30FEF744FE01222146504600F0A9FB05906A
:402EC00000E00596029B069F03F00103079329460498FFF7D7FA3146044600F13008049800F0E7FB059A02902946504600F0FDFBC36802463BB901460A90049800F0D9FB94
:402F00000A9A034600E00123114650460A9300F0F8F90A9B53B91E9A42B9079A32B9B8F1390F2AD0029B002B1CDC1DE0029A002A04DB1BD11E9ACAB9079ABAB9002B13DDA2
:402F400001220499504600F063FB2946049000F0B0FB002803DC07D118F0010F04D0B8F1390F0AD004F131087C1C0CE0002B07F101040BDDB8F1390F03D139233B700137B3
:402F800056E008F1010887F800806CE0069B2746E31A4B4504F8018C3BD000230A220499504600F0C5F9059B04909E424FF00A024FF000033146504604D100F0B9F90646BE
:402FC000059084E700F0B4F9002306460A220599504600F0ADF9059079E700230A220499504600F0A5F9049029460498FFF74AFA069B00F1300804F8018BE31A4B45ECDB4B
:40300000069B0596B9F1010FACBF4B4401331F46002601220499504600F0FAFA2946049000F047FB002803DC15D118F0010F12D03C4614F8013C621E392B09D1069B93428C
:4030400004D10BF1010B3123069A02E01446F0E70133137007E03C4614F8013C621E302B01D11446F8E72946504600F04AF9059B6BB12EB19E4203D03146504600F041F960
:403080000599504600F03DF901E0DDF820B00499504600F036F90023209A23700BF101031360229B1BB11C6001E008480AE0069808E0B9F1000F3FF7E2AE1E9B022B7FF77A
:4030C000DEAEB1E615B0BDE8F08F00BF68420000014900F0A9B800BFB93F000010B50446002303604360836081814366C281036143618361194608225C30FEF72AFD054B93
:4031000024626362044BA362044BE362044B236310BD00BF5D3C00007F3C0000B73C0000DB3C000070B568234D1E5D430E4605F1740100F0E1FB044640B1002180E8420051
:403140000C30A06005F16802FEF703FD204670BD836910B5044633BB8364C3640365124B124A1B688262984204BF0123836100F01FF86060204600F01BF8A060204600F081
:4031800017F80022E06004216068FFF7A7FF01220921A068FFF7A2FF02221221E068FFF79DFF0123A36110BD54420000D1300000F8B51C4B07461E68B36913B93046FFF731
:4031C000C7FF4836B4687368013B04D4B4F90C507DB16834F8E733680BB13668F2E704213846FFF79FFF30600028F6D10C233B60F8BD4FF6FF73E3810123A3816566256018
:40320000A560656025616561A5610822294604F15C00FEF79EFC6563A563A564E5642046F8BD00BF544200002DE9F8438046894600F14804002694B1A5686768013F0CD4DD
:40324000AB89012B07D9B5F90E30013303D029464046C84706436835F0E72468EBE73046BDE8F883004870474481FF1F024B0146186800F041BB00BF4081FF1F10B5C9B2A6
:4032800002449042034605D01C7801308C42F8D1184610BD002010BD70B5456A04460E463DB91020FFF7E2FF6062456085600560C560656AEB6843B1636ADB6853F8260088
:4032C00078B1026843F8262017E021220421204600F0B8FA636AE860DB68002BECD1002070BD012101FA06F56A1D9200204600F0A9FA0028F3D04660856000230361C3607C
:4033000070BD70B5446A06460D463CB91020FFF7ADFF7062446084600460C4603DB1736A6A68DB6853F82210296043F8225070BD2DE9F04106460C460D691F4601F1140EB1
:403340000023DEF80000013381B202FB0171000C0F0C02FB007089B201EB00419D424FEA10474EF8041BECDCD7B1A3689D4212DB616830460131FFF78FFF8046226904F14C
:403380000C01023292000C30FEF7D8FB21463046FFF7B7FF444604EB850301355F6125612046BDE8F081030C1B0413B90004102300E0002310F07F4F04BF0002083310F0B2
:4033C000704F04BF0001043310F0404F04BF80000233002803DB420003D5581C70471846704720207047036813F007020BD0D90722D49A074BBF5B089B08036003604CBF0B
:4034000001200220704799B209B91B0C102213F0FF0F04BF1B0A0832190704BF1B090432990704BF9B080232D90702D45B0805D00132036010467047002070472020704723
:4034400010B50C460121FFF727FF01224461026110BD2DE9F74F14460A69236988469A42BEBF0B46A0461C46D8F81070D4F81090D8F80830D8F8041007EB09069E42C8BF7A
:403480000131FFF709FF00F114052B4605EB860C0022634502D243F8042BFAE704F1140208F1140102EB890301EB87070093009B0192934257D9B2F800B0BBF1000F23D01C
:4034C0008946AE464FF0000859F8044BBEF800A0A3B20BFB03A34FEA144ADEF8004043444FEA14480BFB0A84F24604EB13449BB243EA04434F454FEA14484AF8043B01D9AB
:40350000D646E1E7CEF80480019B0432B3F802A0BAF1000F21D02C4689462B684FF00008B9F800E0B4F802B09BB20AFB0EBEA346F04443EA08434BF8043B59F8043BB4F818
:4035400004E01B0C0AFB03E34F4503EB18434FEA134801D95C46E3E763600435A7E75CF8043D13B9013E002EF9DC066103B0BDE8F08F00002DE9F843154612F00302064634
:403580000F4607D0214C013A002354F82220FFF7CFFE0746AD1036D0746A3CB91020FFF765FE7062446084600460C460D6F82480D8F808404CB940F271213046FFF740FF77
:4035C00004460023C8F8080003604FF00008EB070AD5394622463046FFF73BFF814639463046FFF78EFE4F466D100CD0206808B10446ECE7224621463046FFF72AFF206020
:40360000C0F80080F4E73846BDE8F883D04300002DE9F0470C460746914626694FEA621A56444968A368751CAB4202DA01315B00FAE73846FFF730FE002380461A4600F1C5
:403640001401534503DA41F823200133F9E72AEAEA73206901EB830319F01F0904F1140101EB800E14D0C9F1200C002208689A4600FA09F0024343F8042B51F8042B8E45E6
:4036800022FA0CF2F2D8CAF8042042B1B51C06E0043B51F8042B8E4543F8042FF9D8013D3846C8F810502146FFF72BFE4046BDE8F08703690A6910B59B1A11D192001430B8
:4036C000143183180A4453F8044D52F8041D8C4202D007D3012010BD9842F4D3002010BD184610BD4FF0FF3010BD2DE9F8430C460746114620461546FFF7DBFF061E08D164
:4037000031463846FFF7C8FD012303614661BDE8F883BCBF23462C4638466168BABF1D4601260026FFF7B8FD2B69C660266905F1140904F1140101EB860709EB830800F1CA
:4037400014054FF0000C51F8042B59F8044B93B29C44A3B2240CC3EB0C03C4EB124202EB23429BB24FEA224CC84543EA02428E4645F8042BE7D8BE450ED25EF8041B8AB20C
:403780006244131403EB114392B242EA03424FEA234C45F8042BEEE755F8043D0BB9013EFAE70661BDE8F8832DE9F3411C4601219046089E099DFFF76FFDC4F31302C4F38E
:4037C0000A5407460CB142F480120192B8F1000F19D002A840F8088DFFF705FE009B48B1019AC0F1200102FA01F10B43C2407B61019200E07B61019B002B14BF02210121AC
:40380000BB61396107E001A8FFF7EDFD019B01217B613961203034B1A4F2334404443460C0F1350009E0A0F2324007EB810330601869FFF7B8FDC0EB41102860384602B057
:40384000BDE8F08138B502FB01F4214600F054F8054618B122460021FEF77BF9284638BD38B50546002944D051F8043C0C1F002BB8BFE41800F03CFC1E4A1368114613B952
:403880006360146030E0A3420DD92268A018834201BF18685B681218226063600C6023E0A24203D813465A68002AF9D118681918A1420BD12168014458188242196013D171
:4038C00010685268014419605A600DE002D90C232B6009E021686018824201BF106852680918216062605C602846BDE8384000F000BC38BDE481FF1F70B5CD1C25F0030502
:4039000008350C2D38BF0C25002D064601DBA94202D90C23336046E000F0EAFB234B1C681A462146A1B10B685B1B0ED40B2B03D90B60CC18CD501EE08C420BBF63684B68A9
:403940001360636018BF0C4615E00C464968E9E7174C23681BB9304600F070F920602946304600F06BF9431C18D0C41C24F00304A0420DD12560304600F0BBFB04F10B0033
:40398000231D20F00700C31A0ED05A42E25070BD211A304600F052F90130EBD10C233360304600F0A6FB002070BD00BFE481FF1FE081FF1F936810B4013B002B936008DA4F
:4039C0009469A34202DBCBB20A2B02D110BC00F089B91368581C10601970C8B210BC7047F8B506460F461446D518AC4208D03A4614F8011B3046FFF7DDFF431CF5D100E050
:403A00000020F8BD2DE9F04F9DB00C4617460393064618B183690BB9FFF79AFB7F4B9C4201D1746808E07E4B9C4201D1B46803E07C4B9C4208BFF468A38918070CD5236944
:403A400053B10023099320238DF8293030238DF82A30DFF8D4B144E02146304600F0A8F90028EED04FF0FF30D5E0039A111D12680391002A80F28C80524243F00200079256
:403A8000049098F800302E2B00F08480032298F800106548FFF7F2FB48B14023CBEB000003FA00F0049B08F101081843049098F8001006225D4808F101078DF82810FFF760
:403AC000DDFB002800F09580594B002B40F08880039B073323F0070308330393099B53440993B846454615F8013B1BB9B8EB07090FD003E0252BF9D0A846F3E74B463A4610
:403B000021463046FFF76CFF01307FD0099B4B44099398F80030002B78D000234FF0FF3204930793059206938DF853301A930127052229783F48FFF7A1FB05F10108049B75
:403B400038B13C4A4546801A07FA00F018430490EEE7D90644BF20228DF853201A0744BF2B228DF853202A782A2A3FF47EAF079A00210A20A84698F800300135303B092BB2
:403B800003D800FB02320121F4E700293FF479AF079276E798F801302A2B0BD1039B08F102081A1D1B680392002BB8BF4FF0FF3305936BE700231946059308F101000A2562
:403BC000804698F800200130303A092A03D805FB01210123F4E7002B3FF458AF059155E703AB00932246144B04A93046FEF74AF807E003AB009322460F4B04A93046FEF7EA
:403C0000FBFAB0F1FF3F82467FF468AFA3895B063FF528AF09981DB0BDE8F08F9C420000BC420000DC4200000E44000012440000851C000008440000E139000038B5064C4C
:403C40000023054608462360FCF710FD431C02D1236803B12B6038BDF881FF1F10B50C46B1F90E1000F046FA0028ABBF636DA3891B1823F48053ACBF6365A38110BD2DE989
:403C8000F0411F468B890546DB050C46164605D502230022B1F90E1000F0B8F9A389324623F48053A381B4F90E103B462846BDE8F04100F06BB810B50C46B1F90E1000F0D3
:403CC000A5F9431CA38915BF606523F4805343F48053A38118BFA38110BDB1F90E1000F0D5B80000F8B50F461446064618B183690BB9FFF72DFA224B9C4201D1746808E0BE
:403D0000204B9C4201D1B46803E01F4B9C4208BFF468A369A360A3891A0709D523693BB123682069FDB2181A636998420FDB08E02146304600F03CF80028F1D04FF0FF3087
:403D4000F8BD2146304600F037F90028F6D1A368013BA36023685A1C22601F706269431C934204D0A389DB0707D50A2D05D12146304600F021F90028E0D12846F8BD00BFDA
:403D80009C420000BC420000DC42000038B5074C054608461146002222601A46FCF716FB431C02D1236803B12B6038BDF881FF1F324B70B51D6806460C4625B1AB6913B9CE
:403DC0002846FFF7C5F92E4B9C4201D16C6808E02C4B9C4201D1AC6803E02B4B9C4208BFEC68B4F90C309AB215071DD4D00602D4092232603AE0510712D5616B41B104F178
:403E00004403994202D03046FFF72AFD00236363A38923F02403A3810023636023692360A38943F00803A38123694BB9A38903F42073B3F5007F03D02146304600F01CF9E3
:403E4000A28912F0010305D00023A36063695B42A36103E0920758BF6369A36023695BB9B4F90C3003F0800080B230B143F04003A3814FF0FF3070BD002070BD4081FF1FD7
:403E80009C420000BC420000DC42000038B5064C002305460846236000F076F9431C02D1236803B12B6038BDF881FF1F8A892DE9F041054610070C4659D44B68002B02DCAC
:403EC0000B6C002B17DDE66AAEB102F48052002392B22F682B600AB1606D15E0216A01232846B047411C0FD12B686BB11D2B01D0162B03D12F600020BDE8F081A38943F05D
:403F00004003A381BDE8F081A3895A0705D56368C01A636B0BB1236CC01A00230246E66A216A2846B047431CA38906D129681D2939D8204ACA40D60735D500226260226946
:403F4000D904226004D5421C01D12B6803B96065616B2F600029CED004F14403994202D02846FFF77DFC00206063BDE8F0810F69002FC0D093070E680CBF4B690023C7EB49
:403F800006080F608B6002E00744C0EB0808B8F1000FB0DD43463A46216A2846A66AB0470028F1DCA38943F04003A3814FF0FF30BDE8F0810100402038B50B6905460C46C5
:403FC000DBB118B183690BB9FFF7C2F80C4B9C4201D16C6808E00B4B9C4201D1AC6803E0094B9C4208BFEC68B4F90C302BB121462846BDE83840FFF759BF002038BD00BF66
:404000009C420000BC420000DC42000038B5074C054608461146002222601A4600F0CCF8431C02D1236803B12B6038BDF881FF1F70B50E46B1F90E1090B0002914461D46AF
:4040400006DA00232B60B3891A060ED540230EE001AA00F061F80028F3DB029A02F47042A2F500535A425A412A604FF480630020236010B070BD00008B8973B59E07054667
:404080000C4610D401AB6A46FFF7D2FF009906462846FFF731FC68B9B4F90C309A0522D443F00203A38104F14703236023610123636118E00D4BAB62A389206043F0800349
:4040C000A381009B20616361019B4BB1B4F90E10284600F033F818B1A38943F00103A381A0893043A08102B070BD00BFD13000007047704738B5074C054608461146002264
:4041000022601A4600F060F8431C02D1236803B12B6038BDF881FF1F38B5074C0023054608461146236000F037F8431C02D1236803B12B6038BD00BFF881FF1F38B5064C52
:40414000002305460846236000F02EF8431C02D1236803B12B6038BDF881FF1F4FEA410C7FEA6C5C02D150EA013C0AD14FEA430C7FEA6C5C02D152EA033C02D14FF000006D
:4041800070474FF001007047024B58221A604FF0FF307047F881FF1F024B58221A604FF0FF307047F881FF1F024B58221A600020704700BFF881FF1F024B58221A604FF069
:4041C000FF307047F881FF1F024B58221A604FF0FF307047F881FF1F000000000000000050726F6772616D20737461727465642E2E2E00000928252E32662C20252E326679
:4042000029090000004F00400C0000510040100030510040400000000140001000140140000480180140800300400140000A004C014000020050014020000000605200404C
:40424000D8050048060000180140E0050048800043000000E080FF1F494E4600696E66004E414E006E616E003000303132333435363738394142434445460030313233344C
:40428000353637383961626364656600496E66696E697479004E614E000000000000000000000000000000000000000000000000000000000000000000000000000000004F
:4042C000000000000000000000000000000000000000000000000000000000000000000000000000000000000000000000000000000000000000000000000000504F534983
:4043000058002E0000000000000000000000F03F000000000000244000000000000059400000000000408F40000000000088C34000000000006AF8400000000080842E411C
:4043400000000000D01263410000000084D797410000000065CDCD41000000205FA00242000000E876483742000000A2941A6D42000040E59C30A2420000901EC4BCD642A8
:4043800000003426F56B0C430080E03779C3414300A0D8855734764300C84E676DC1AB43003D9160E458E143408CB5781DAF154450EFE2D6E41A4B4492D54D06CFF0804456
:4043C000F64AE1C7022DB544B49DD9794378EA4405000000190000007D000000000000000080E03779C34143176E05B5B5B89346F5F93FE9034F384D321D30F94877825AAA
:404400003CBF737FDD4F1575232D302B2000686C4C0065666745464700000000F8B500BFF8BC08BC9E4670474D000000E9060000F8B500BFF8BC08BC9E4670472900000087
:4044400050440000C880FF1FB800000080000000000000000082FF1F0000E02EC05D00001800000000366E01000000009C420000BC420000DC420000000000000000000088
:40448000000000000000000050420000000000000000000000000000000000000000000000000000000000000000000000000000000000000000000000000000000000006A
:4044C0000000000000000000E080FF1F024300000D4400000D4400000D4400000D4400000D4400000D4400000D4400000D4400000D440000FFFFFFFFFFFFFFFFFFFFFFFF2C
:40450000FFFF00000000000000000000000000000000000000000000000000000000000000000000000000000000000000000000000000000000000000000000000000007D
:40454000000000000000000000000000000000000000000000000000000000000000000000000000000000000000000000000000000000000000000000000000000000003B
:4045800000000000000000000000000000000000000000000000000000000000000000000000000000000000000000000000000000000000000000000000000000000000FB
:4045C00000000000000000000000000000000000000000000000000000000000000000000000000000000000000000000000000000000000000000000000000000000000BB
:40460000000000000000000000000000000000000000000000000000000000000000000000000000000000000000000000000000000000000000000000000000000000007A
:020000040003F7
:0200000480007A
:4000000001450040024F004005520040036400400265004001050140040601400207014038080140380901405E0A0140410B0140430C01402E0D0140011701401E180140D3
:400040003D190140401A0140401B014003400140024101400842014005430140064501400B4601400147014003480140084C0140084D01400550014001510140120201807A
:400080000A2708C00980100111017810890D8A0F8D0D88388B72E60439083F0459045F0127208320020304010602070108180E051001140219011A081C18241028012B010B
:4000C0002F01300432183301340338083B083C203D083E045280580459045B045F018104860687018B01970198019902A003A101A403A901AA04AD02B001B101B204B30483
:40010000B402B502BC02BE04BF05D405D804D904DB04DF050004041405200680070109200C480D020E010F0410281240172419141A401C041D0A1E04212022042380272036
:40014000284029202A402C082E80302033043720382039023B043E0459055A406B02768079087E0290309102920193049B049D109F82A508C0F4C2F2C46ECA3DCC26CE47F5
:40018000D60BDE1203030540060C080C09300A020B0C0E061204151C160A172218011914212C23112509260227102D10311F34013560360E39203A803E104036410145EBB5
:4001C00046C0470E481B49FF4AFF4BFF4EF04F44500C5401580459045A045B045C115D115F0166C06A406B028101830E8703880389018A048B069403950C960C97039A0512
:400200009B0C9C039E04A40AA604AA08AF08B20FB50FBA08BB20C003C740C9FFCA07CBFFCC40CD20CEF0CF05D008D804D904DA04DB04DC11DD01DF01E040E1A8E240E32074
:400240000180022003040420052009010A100B080E110F04130415201604170419801A051C101E102111222027042A062B022F023020330436203704381039023B043E1337
:400280003F04401042014508482049014A044F04501053045501570259215A045B805E085F046A806D408140824087028D10C047C2EEC464CA1BCC66CEE7D04AD204D60F26
:4002C000E40703010601070116011D012B0130013101360137013B823D825280580459045B045F01820384018606870189068F08910294049701980199069C01A201A404E0
:40030000A802B104B204B301B403B508B702BC20BD80BF04C024C106C5D1C702C81BC9FFCAFFCBFFCDA0CF04D018D405D804D904DA04DB04DF05E040E2C0E440E540E6C097
:40034000E8C0EAC0ECC0EEC00006040409600B200C081028130218041A201C401F8221222244254027802C08302831023780380439403B203C064044482849015008531005
:4003800059015A8869406B0274017B827F808E10C02CC227C40ECA20CC17CECED005D204D60BDE89E6088B019701B101B301B701C021C106C5D0C610C702C81EC9FFCAFF56
:4003C000CBFFCDA0CF04D018D904DA04DB04DF01E040E2C0E440E540E6C0E8C0EAC0ECC0EEC004800518068007040D200E12154517101C201D922001210422022688270802
:400400002F28300835203621370839203C023D2940014110420445B64680480849014D205028524057285E01628063016404660267016A406F018602920495089D019E40EE
:400440009F01A428A602B204C0F0C2E0C4F0CA60CCE2CEE4D0FCD224D680D8B0010405020F01150619071D061F012106230129012B0637073B8059045C105F0181068263B4
:40048000830184188502880889068C108D108F08904091079424951898E799019A189B069C9C9D049E62A107A204A460A508A730A8FFA918ACFCAE01AF01B118B280B47828
:4004C000B507B61FB720BAA0BB08BE04D602D711D804D904DB04DC11DD10DF0106A107080C400D020E26158017151C101D301E0620022140224024C0250626202711284026
:4005000029102C802D082E90300832403310359036053A853C423E285C106D446E1874087580762D77088080831089088A109480954496109A809B049D089F10A401A52451
:40054000A621AA40AC04AE08B010B201C0F0C2F0C4F0CAF5CCFECEFBD620E80433803680CC30A680A780128057048304A680A780C410D440E6206B808380A780DC20E280D3
:4005800052205C408C08D404D604E002538057088040830886208F8094409808A620D406E00298088780A780E6105C0866019808A001B001D601D801E80110407401884036
:4005C000A001AA01C408DE04E20100030C030E0110031C03000B00008484000040000000000060012201110061010E004400110000000001870000026000000400006000D0
:400600000000600087000004600000028000000080006002070118040020000000004044240306000100C00E18FFFFFF62A0F0410C000000180004000404040411110001A4
:400640000000000000004002001030100010101200000000000000000000000000000000800040848400840000000000003030003000000000CBCB00C00000000400000779
:400680000300030000000000000000000000000000000000000000000000000000000000000000000000000000000000000000000000000000000000000000000000000034
:4006C00000000000000000000000000000000000000000000000000000000000000000000000000000000000000000000000000000000000000000000000000000000000FA
:4007000000000000000000000000000000000000000000000000000000000000000000000000000000000000000000000000000000000000000000000000000000000000B9
:400740000000000000000000000000000000000000000000000000000000000000000000000000000000000000000000000000000000000000000000000000000000000079
:400780000000000000000000000000000000000000000000000000000000000000000000000000000000000000000000000000000000000000000000000000000000000039
:0200000490006A
:0400000000004005B7
:0200000490105A
:04000000BC90ACAF55
:0200000490303A
:02000000A1B2AB
:0200000490402A
:4000000000000000000000000000000000000000000000000000000000000000000000000000000000000000000000000000000000000000000000000000000000000000C0
:400040000000000000000000000000000000000000000000000000000000000000000000000000000000000000000000000000000000000000000000000000000000000080
:400080000000000000000000000000000000000000000000000000000000000000000000000000000000000000000000000000000000000000000000000000000000000040
:4000C0000000000000000000000000000000000000000000000000000000000000000000000000000000000000000000000000000000000000000000000000000000000000
:0200000490501A
:0C00000000012E16106900012E32B21B08
:00000001FF